:100000000A128A11FC2F00308A000408840A820731
:10001000003420344B344534593450344134443462
:040020003A3400343A
:100D5800F20072088312031387000814881008151C
:100D68000430F1003D30F000F00BB82EF10BB82E36
:100D7800BD2E8312031308110800F20072088312B3
:100D8800031387000810881008150430F1003D305F
:100D9800F000F00BCD2EF10BCD2ED22E83120313C3
:100DA80008110800F501E72E7508730784000A1278
:100DB8008A1103200A128A110A128A11AC260A1211
:100DC8008A110130F50774087502031CEC2EED2E0C
:100DD800D82E080038300A128A11C1260A128A1140
:100DE80006300A128A11C1260A128A110C300A1218
:100DF8008A11C1260A128A1101300A128A11C126E3
:100E08000A128A1108008316031387018801F0303B
:100E180086000A128A11EE260A128A1180300A12F6
:100E28008A11C1260A128A110130F3000830F40031
:100E38000A128A11D6260A128A11C0300A128A1199
:100E4800C1260A128A110A128A1130270A128A1137
:100E5800272F0A128A1100288312031306148610FA
:100E68000611061E382F392F452F31300A128A11E4
:100E7800AC260A128A1183120313061A442F452F2F
:100E88003F2F861E482F492F552F34300A128A11BA
:100E9800AC260A128A1183120313861A542F552F6F
:100EA8004F2F061F582F592F652F37300A128A11D6
:100EB800AC260A128A1183120313061B642F652FAE
:100EC8005F2F861F682F692F752F2A300A128A1103
:100ED800AC260A128A1183120313861B742F752FEE
:100EE8006F2F061086140611061E7B2F7C2F882F65
:100EF80032300A128A11AC260A128A11831203139D
:100F0800061A872F882F822F861E8B2F8C2F982FBB
:100F180035300A128A11AC260A128A118312031379
:100F2800861A972F982F922F061F9B2F9C2FA82F3A
:100F380038300A128A11AC260A128A118312031356
:100F4800061BA72FA82FA22F861FAB2FAC2FB82FB9
:100F580030300A128A11AC260A128A11831203133E
:100F6800861BB72FB82FB22F061086100615061E3F
:100F7800BE2FBF2FCB2F33300A128A11AC260A128C
:100F88008A1183120313061ACA2FCB2FC52F861E68
:100F9800CE2FCF2FDB2F36300A128A11AC260A1239
:100FA8008A1183120313861ADA2FDB2FD52F061F17
:100FB800DE2FDF2FEB2F39300A128A11AC260A12E6
:100FC8008A1183120313061BEA2FEB2FE52F861FC6
:100FD800EE2FEF2FFB2F23300A128A11AC260A12AC
:100FE8008A1183120313861BFA2FFB2FF52F080093
:080FF80083010A128A11072F80
:08400000FF3FFF3FFF3FFF3FC0
:02400E00BA3FB7
:00000001FF
